S00E00005465747269732E737265639B
S11300004DC000006AC0000068C0000066C0000067
S113001064C0000062C0000060C000005EC0000058
S11300205CC000005AC0000058C0000056C0000068
S113003054C000007DC1000050C000004EC000004C
S11300404CC000004AC0000048C0000046C0000088
S113005044C0000042C0000040C000003EC0000098
S11300603CC000003AC0000038C0000036C00000A8
S113007034C0000032C0000030C000002EC00000B8
S11300802CC000002AC0000028C00000B80EEB0EEF
S1130090FC0E0E0F200F320FC90EDA0E11241FBEF4
S11300A0CFEFD0E4DEBFCDBF11E0A0E0B1E0ECE1E2
S11300B0F6E200E00BBF02C007900D92AA35B1072B
S11300C0D9F723E0AAE5B1E001C01D92A830B20738
S11300D0E1F70E94430C0C940C1392CF5E9881E0DC
S11300E088B95F9A00005F9887E093E00000019769
S11300F0E9F787E093E000000197E9F7089524E623
S113010030E087E093E000000197E9F721503109DE
S1130110C1F75E9888E388B95F9A00005F9887E02A
S113012093E000000197E9F787E093E0000001976E
S1130130E9F75E9886E088B95F9A00005F9887E0E7
S113014093E000000197E9F787E093E0000001974E
S1130150E9F75E988FE088B95F9A00005F9887E0BE
S113016093E000000197E9F787E093E0000001972E
S1130170E9F75E9881E088B95F9A00005F9887E0AC
S113018093E000000197E9F787E093E0000001970E
S1130190E9F72AE030E087E093E000000197E9F70F
S11301A021503109C1F708955E98813108F44BC09C
S11301B09FEA980F98B95F9A00005F9827E033E0B0
S11301C0000021503109E1F727E033E0000021501D
S11301D03109E1F7FB01282F8081882311F15E9812
S11301E0213100F18FEA820F88B95F9A00005F988D
S11301F087E093E000000197E9F787E093E00000CF
S11302000197E9F781915E9A88B95F9A00005F9837
S113021087E093E000000197E9F72F5F8081811167
S1130220DECF08958FE7820F88B95F9A00005F9848
S113023087E093E000000197E9F787E093E000008E
S11302400197E9F7DFCF9FE7980F98B95F9A00000D
S11302505F9827E033E0000021503109E1F727E0FF
S113026033E0000021503109E1F7B4CF1F93CF935D
S1130270DF93423020F0DF91CF911F910895C42F76
S1130280162FD82F622F80E00E948F0E87E0982FC0
S11302909D1BE12FF0E0EF57FE4F808141E050E0DD
S11302A001C0440F9A95EAF7CC2349F0482B4083C8
S11302B0612F80E0DF91CF911F910C94AD0E40959A
S11302C04823F5CFCF92DF92EF92FF920F931F93C3
S11302D0CF93DF93D82E87E0C82EEE24E394F12C3D
S11302E0C7010C2C01C0880F0A94EAF7D82FD095C7
S11302F001E811E0C0E06D2D80E00E948F0EF8014E
S113030040814D2341938F016C2F80E00E94AD0EFC
S1130310CF5FC83081F7CA94FFEFCF12E1CFDF91EE
S1130320CF911F910F91FF90EF90DF90CF900895A0
S11303301F920F920FB60F9211248F939F93AF9336
S1130340BF9380916C0190916D01A0916E01B09169
S11303506F010197A109B10980936C0190936D011C
S1130360A0936E01B0936F01892B8A2B8B2B99F488
S113037081E0809370018091050190910601A09124
S11303800701B091080180936C0190936D01A093D3
S11303906E01B0936F01BF91AF919F918F910F90B8
S11303A00FBE0F901F901895ECE8F1E081E0808378
S11303B01182128283838483858392E09683878368
S11303C08087118682878387948785878687978726
S11303D0108A818B828B838B948B858B868B978BF6
S11303E0808F118E128E838F848F858F868F978F47
S11303F080A314A290A791A385A391A792A316A268
S113040092A793A317A283A722E724A715A616A64B
S113041017A680AB81AB82AB93AB84AB95AB16AA2A
S113042087AB10AE81AF82AF83AF94AF95AF96AF79
S113043097AF8093CC018093CD018093CE0110922D
S1130440CF018093D0011092D1019093D201809377
S1130450D3019093D4018093D5018093D6018093E6
S1130460D7011092D8018093D9011092DD019093A5
S1130470E1019093DA018093DE019093E20190937D
S1130480DB011092DF019093E3019093DC01109261
S1130490E0018093E40122EE2093E5019093E601CC
S11304A01092E7011092E8018093E9018093EA0138
S11304B08093EB019093EC018093ED019093EE0116
S11304C09093EF018093F0011092F1018093F20177
S11304D08093F3018093F4019093F5011092F60157
S11304E09093F7019093F8018093F9018093FA01B6
S11304F08093FB011092FC018093FD011092FE0198
S11305001092FF01809300029093010280930202F3
S113051080930302809304021092050280930602E2
S113052010920A0290930E029093070280930B029A
S113053090930F029093080210920C029093100271
S11305409093090210920D02809311022EE82093D9
S11305501202109213029093140280931502909346
S113056016028093170280931802909319028093C5
S11305701A0280931B0210921C0280931D02809326
S11305801E0290931F028093200290932102909365
S113059022021092230290932402809325029093C6
S11305A02602809327028093280290932902809345
S11305B02A0280932B0210922C0280932D028093A6
S11305C02E0290932F0280933002909331029093E5
S11305D03202909333021092370290933B0290932D
S11305E034028093380290933C0290933502109227
S11305F0390290933D029093360280933A0290938D
S11306003E0226E320933F0210924002809341026F
S11306108093420290934302809344028093450264
S11306209093460290934702909348021092490295
S113063080934A0280934B0290934C0280934D0224
S113064080934E0290934F02109250028093510275
S113065080935202909353028093540280935502E4
S11306609093560290935702909358021092590215
S113067080935A0280935B0290935C0280935D02A4
S113068080935E0290935F029093600210926402E2
S1130690909368029093610280936502909369023B
S11306A0909362021092660290936A02909363029E
S11306B08093670290936B022AE520936C02109258
S11306C06D0280936E0280936F0280937002909308
S11306D071028093720223E0209373028093740268
S11306E08093750210927602809377028093780249
S11306F08093790290937A0280937B0220937C0208
S113070010927D0280937E0280937F028093800208
S113071090938102809382022093830280938402C7
S113072080938502109286028093870280938802C8
S11307308093890290938A0280938B0220938C0287
S113074080938D02109291022093950220938E0241
S1130750809392028093960280938F021092930268
S1130760209397022093900280939402809398029E
S113077092EF9093990210929A0210929B02109217
S11307809C0280939D0280939E0210929F0280930C
S1130790A0028093A1021092A2021092A3021092CE
S11307A0A4028093A5028093A6021092A7028093CC
S11307B0A8028093A9021092AA021092AB0210928E
S11307C0AC028093AD028093AE021092AF0280938C
S11307D0B0028093B1021092B2021092B30210924E
S11307E0B4028093B5028093B6021092B70280934C
S11307F0B8028093B9028093BA021092BE02809329
S1130800C2028093BB021092BF028093C302809302
S1130810BC021092C0028093C4028093BD02109265
S1130820C1028093C50286E48093C6020895CF93E3
S1130830DF93CDB7DEB7C758D1090FB6F894DEBF42
S11308400FBECDBF80918B01813079F128F08230C9
S113085011F1833009F483B181E080938B01A4DD2D
S1130860809178009091790080976BE071E00E940C
S11308704F0F60935E0180915E0180915E018093D1
S11308806201C957DF4F0FB6F894DEBF0FBECDBF6C
S1130890DF91CF910895189BDFCF80916301882366
S11308A049F083E080938B01ECCF189BD8CF82E092
S11308B080938B0180917800909179004E976BE042
S11308C071E00E944F0F60935E0180915E01809100
S11308D05E01843018F083E080935E012091620110
S11308E0233008F0B3C1E0916101A22FB0E011966A
S11308F080910401082E000C990B3DE2E39FF00166
S11309001124E457FE4FAE0FBF1F94963C91949769
S1130910AC01430F511D57FD15C098963C91989713
S1130920AC01430F511D4830510564F440915F01FF
S113093050E090963C91BA01630F711D68307105C7
S11309400CF422C11D998BC0E09161016091620198
S113095070E0409104018DE2E89FF0011124E45716
S1130960FE4FDF01A60FB71F94962C91842F042EFF
S1130970000C990B820F911D181619060CF06FC00C
S113098080915F0141509DE2DE019E9601900D929F
S11309909A95E1F7242F042E000C330B90E0FB0111
S11309A0EE0FFF1FEE0FFF1FEE0FFF1F61E070E061
S11309B06C0F7D1FE60FF71F55A5D901A50FB11DBB
S11309C0AA0FBB1FAA0FBB1FAA0FBB1FA853BD4F63
S11309D056A5A80FB91FA50FB11D5C9151113FC0B9
S11309E057A5D901A50FB11DAA0FBB1FAA0FBB1F85
S11309F0AA0FBB1FA853BD4F50A9A80FB91FA50F1D
S1130A00B11D5C9151112BC051A9D901A50FB11D84
S1130A10AA0FBB1FAA0FBB1FAA0FBB1FA853BD4F12
S1130A2052A9A80FB91FA50FB11D5C91511117C090
S1130A3053A9250F311D220F331F220F331F220FFD
S1130A40331F28533D4F54A9820F931FFC01E50F18
S1130A50F11D8081811103C04093040133DC1E9990
S1130A6010CFE09161016091620170E04091040156
S1130A708DE2E89FF0011124E457FE4FDF01A60F39
S1130A80B71F98962C91842F042E000C990B820F7B
S1130A90911D07970CF0F5CE80915F014F5F9DE2A9
S1130AA0DE01119601900D929A95E1F7242F042E00
S1130AB0000C330B90E0FB01EE0FFF1FEE0FFF1F46
S1130AC0EE0FFF1F61E070E06C0F7D1FE60FF71F54
S1130AD05081D901A50FB11DAA0FBB1FAA0FBB1FBF
S1130AE0AA0FBB1FA853BD4F5181A80FB91FA50F53
S1130AF0B11D5C915111C5CE5281D901A50FB11D13
S1130B00AA0FBB1FAA0FBB1FAA0FBB1FA853BD4F21
S1130B105381A80FB91FA50FB11D5C915111B1CE1E
S1130B205481D901A50FB11DAA0FBB1FAA0FBB1F6A
S1130B30AA0FBB1FA853BD4F5581A80FB91FA50FFE
S1130B40B11D5C9151119DCE5681250F311D220F8F
S1130B50331F220F331F220F331F28533D4F57815A
S1130B60820F931FFC01E50FF11D8081811189CE55
S1130B7040930401C957DF4F0FB6F894DEBF0FBE90
S1130B80CDBFDF91CF919ECB3DE2DE01A55ABF4F91
S1130B9001900D923A95E1F72F5FEBE5F0E0EC0F51
S1130BA0FD1F68E0269FE00DF11D11242081DC016A
S1130BB0A20FB11DAA0FBB1FAA0FBB1FAA0FBB1FF9
S1130BC0A853BD4F2181A40FB51FA20FB11D2C91B5
S1130BD02111B8CE2281DC01A20FB11DAA0FBB1FC7
S1130BE0AA0FBB1FAA0FBB1FA853BD4F2381A40F7D
S1130BF0B51FA20FB11D2C912111A4CE2481DC01BB
S1130C00A20FB11DAA0FBB1FAA0FBB1FAA0FBB1FA8
S1130C10A853BD4F2581A40FB51FA20FB11D2C9160
S1130C20211190CE2681820F911D880F991F880F64
S1130C30991F880F991F88539D4F2781840F951FF3
S1130C40FC01E20FF11D808181117CCE80915E0157
S1130C508093620180E036DB75CEAF92BF92DF9263
S1130C60EF92FF920F931F93CF93DF93CDB7DEB72D
S1130C70CA55D1090FB6F894DEBF0FBECDBF80911F
S1130C80C702823009F4C1C208F4C1C0843069F1DA
S1130C9008F4C8C0853059F51899A8C081E080933C
S1130CA0C7020E94C60F0E94C90F0E94C60F67E0C8
S1130CB070E00E94630F809360011092630183E0EF
S1130CC08093040110925F011092680110926901EF
S1130CD010926A0110926B011092640110926501E6
S1130CE0109266011092670181C0189BD7CF82E0F1
S1130CF08093C70280916001809361010E94C60FB6
S1130D0067E070E00E94630F8093600183E080934A
S1130D10040110925F0190916201E09161018DE202
S1130D208E9FF0011124E457FE4FDE019E96019040
S1130D300D928A95E1F7A1E0B0E0AC0FBD1FE8E0A9
S1130D409E9FA00DB11D11249D96EC919D97F0E0FE
S1130D50EE0FFF1FEE0FFF1FEE0FFF1FE052FD4FC0
S1130D609E968C919E97E80FF11D808181116AC334
S1130D709F96EC919F97F0E0EE0FFF1FEE0FFF1F81
S1130D80EE0FFF1FE052FD4FD0968C91D097E80FE5
S1130D90F11D8081811156C3D196EC91D197F0E079
S1130DA0EE0FFF1FEE0FFF1FEE0FFF1FE052FD4F70
S1130DB0D2968C91D297E80FF11D8081811142C3A4
S1130DC0D396EC91D397F0E0EE0FFF1FEE0FFF1FC9
S1130DD0EE0FFF1FE052FD4FD4968C91E80FF11DEA
S1130DE081E090819923E1F080936301C65ADF4F3B
S1130DF00FB6F894DEBF0FBECDBFDF91CF911F9128
S1130E000F91FF90EF90DF90BF90AF9008958823EB
S1130E1009F444CF813009F06ACF189B42CF67CFE1
S1130E2080E0E2CF189B3ACF80915D01882309F4DA
S1130E30F5C184E08093C70210925D01DE01119632
S1130E4088E0FD0111928A95E9F7E8ECF2E09D0152
S1130E5090E000E051E081E04081411101C080E078
S1130E60408541118F5F408941118F5F408D411151
S1130E708F5F40A141118F5F40A541118F5F40A951
S1130E80442339F040AD442321F0863011F40F5F40
S1130E905C939F5F319611969830E9F6E7ECF2E0A7
S1130EA0EE24EA944EEFF42E1DEF7CEF6BEF5AEF35
S1130EB041E008C04F5F5F5F6F5F7F5F1F5FF39428
S1130EC0E3943196D9018D919D01882309F467C17A
S1130ED0413081F380818183808581878089818B02
S1130EE0808D818F80A181A380A581A780A981ABFA
S1130EF080AD81AFEE2009F452C1AE2CB12CC501F6
S1130F0089539D4FDC01DC90D501A853BD4F5D0191
S1130F10DC92DC011896DC90D5011896DC92DC0199
S1130F205096DC90D5015096DC92DC015896DC900A
S1130F30D5015896DC92DC019096DC90D501909610
S1130F40DC92DC019896DC90D5019896DC92DC0169
S1130F50D096DC90D501D096DC92DC01D8968C91A9
S1130F60D501D8968C93FF2009F419C1AF2CB12C6C
S1130F70C50189539D4FDC01DC90D501A853BD4FB9
S1130F805D01DC92DC011896DC90D5011896DC92A8
S1130F90DC015096DC90D5015096DC92DC01589629
S1130FA0DC90D5015896DC92DC019096DC90D5015A
S1130FB09096DC92DC019896DC90D5019896DC92B0
S1130FC0DC01D096DC90D501D096DC92DC01D89679
S1130FD08C91D501D8968C93112309F4E0C0A12EED
S1130FE0B12CC50189539D4FDC01DC90D501A85378
S1130FF0BD4F5D01DC92DC011896DC90D50118969A
S1131000DC92DC015096DC90D5015096DC92DC0138
S11310105896DC90D5015896DC92DC019096DC90D1
S1131020D5019096DC92DC019896DC90D5019896D7
S1131030DC92DC01D096DC90D501D096DC92DC0108
S1131040D8968C91D501D8968C93772309F4A7C0B0
S1131050A72EB12CC50189539D4FDC01DC90D5012D
S1131060A853BD4F5D01DC92DC011896DC90D501DC
S11310701896DC92DC015096DC90D5015096DC92F7
S1131080DC015896DC90D5015896DC92DC019096F0
S1131090DC90D5019096DC92DC019896DC90D50129
S11310A09896DC92DC01D096DC90D501D096DC9247
S11310B0DC01D8968C91D501D8968C93662309F4DB
S11310C06EC0A62EB12CC50189539D4FDC01DC9066
S11310D0D501A853BD4F5D01DC92DC011896DC906C
S11310E0D5011896DC92DC015096DC90D50150961F
S11310F0DC92DC015896DC90D5015896DC92DC0138
S11311009096DC90D5019096DC92DC019896DC9068
S1131110D5019896DC92DC01D096DC90D501D0966E
S1131120DC92DC01D8968C91D501D8968C9355230A
S1131130B1F1A52EB12CC50189539D4FDC01DC9082
S1131140D501A853BD4F5D01DC92DC011896DC90FB
S1131150D5011896DC92DC015096DC90D5015096AE
S1131160DC92DC015896DC90D5015896DC92DC01C7
S11311709096DC90D5019096DC92DC019896DC90F8
S1131180D5019896DC92DC01D096DC90D501D096FE
S1131190DC92DC01D8968C91D501D8968C9348309A
S11311A009F088CE013009F439C1023009F44CC188
S11311B0033009F462C1A0F080916401909165014B
S11311C0A0916601B091670180559B4FAF4FBF4F0F
S11311D08093640190936501A0936601B0936701C5
S11311E08091680190916901A0916A01B0916B01AD
S11311F0800F911DA11DB11D809368019093690119
S1131200A0936A01B0936B01F1CD189B47CD8091F7
S1131210630181112EC183E08093C70280915C0138
S1131220823308F4F7C010925C01E09161014091AF
S1131230620150E080915F019DE2E99FF001112479
S1131240E457FE4FDF01A40FB51F90969C91282F01
S113125030E0290F311D273031050CF072C0209188
S113126004019DE2DE01119601900D929A95E1F739
S1131270022E000C330B8F5F90E0440F551F440F78
S1131280551F440F551FE1E0F0E0EC0FFD1FE40F84
S1131290F51F4081D901A40FB11DAA0FBB1FAA0FCE
S11312A0BB1FAA0FBB1FA853BD4F4181A80FB91F75
S11312B0A40FB11D4C91411144C04281D901A40F26
S11312C0B11DAA0FBB1FAA0FBB1FAA0FBB1FA85398
S11312D0BD4F4381A80FB91FA40FB11D4C914111FB
S11312E030C04481D901A40FB11DAA0FBB1FAA0F9E
S11312F0BB1FAA0FBB1FA853BD4F4581A80FB91F21
S1131300A40FB11D4C9141111CC04681240F311D05
S1131310220F331F220F331F220F331F28533D4F39
S11313204781820F931FFC01E40FF11D808181111D
S113133008C00E94620180915F018F5F80935F010A
S113134055CD80E00E94620140916101E09162010B
S1131350F0E080910401082E000C990B20915F01AC
S113136030E0EE0FFF1FEE0FFF1FEE0FFF1FADE289
S11313704A9FE00DF11D1124E457FE4F4081DC012A
S1131380A40FB11D4181AA0FBB1FAA0FBB1FAA0F37
S1131390BB1FA853BD4FA20FB31FA40FB11D41E043
S11313A04C935281DC01A50FB11D5381AA0FBB1FC1
S11313B0AA0FBB1FAA0FBB1FA853BD4FA20FB31F79
S11313C0A50FB11D4C935481DC01A50FB11D5581AE
S11313D0AA0FBB1FAA0FBB1FAA0FBB1FA853BD4F49
S11313E0A20FB31FA50FB11D4C935681850F911DFC
S11313F05781880F991F880F991F880F991F885349
S11314009D4F820F931FFC01E50FF11D4083409314
S11314105D01ECCC8F5F80935C01E8CC809164012A
S113142090916501A0916601B09167018896A11D14
S1131430B11D8093640190936501A0936601B093FC
S11314406701CECE81E0D0CC80916401909165019A
S1131450A0916601B09167018C599F4FAF4FBF4F68
S11314608093640190936501A0936601B093670132
S1131470B7CE85E08093C702B9CC80916401909186
S11314806501A0916601B0916701845D9E4FAF4FE5
S1131490BF4F8093640190936501A0936601B0935C
S11314A067019ECEEF92FF920F931F93CF93DF932A
S11314B0CDB7DEB7CA55D1090FB6F894DEBF0FBE5B
S11314C0CDBF80918901813009F4D0C038F08230D9
S11314D009F49BC0833011F41899A0C081E0809373
S11314E0890110925B018FEF82B91092C8021092A9
S11314F0C9021092CA021092CB021092CC0210922E
S1131500CD021092CE021092CF021092D00210920D
S1131510D1021092D2021092D3021092D4021092ED
S1131520D5021092D6021092D7021092D8021092CD
S1131530D9021092DA021092DB021092DC021092AD
S1131540DD021092DE021092DF021092E00210928D
S1131550E1021092E2021092E3021092E40210926D
S1131560E5021092E6021092E7021092E80210924D
S1131570E9021092EA021092EB021092EC0210922D
S1131580ED021092EE021092EF021092F00210920D
S1131590F1021092F2021092F3021092F4021092ED
S11315A0F5021092F6021092F7021092F8021092CD
S11315B0F9021092FA021092FB021092FC021092AD
S11315C0FD021092FE021092FF021092000310928C
S11315D00103109202031092030310920403109269
S11315E00503109206031092070385E0C65ADF4FE5
S11315F00FB6F894DEBF0FBECDBFDF91CF911F9120
S11316000F91FF90EF900C946201189B67CF80912B
S11316106301882381F183E08093890180915B01D8
S1131620882309F4ECC0883088F410E007E0602FC8
S1131630681B25E040E0812F0E9436011F5F8091E6
S11316405B011830A1F78F5F80935B018FEF82B944
S1131650C65ADF4F0FB6F894DEBF0FBECDBFDF9181
S1131660CF911F910F91FF90EF900895189B39CF60
S113167082E08093890190916201E0905F01F09093
S11316800401E09161018DE28E9FF0011124E45781
S1131690FE4FDE019E9601900D928A95E1F701E0DE
S11316A010E00C0F1D1FF8E09F9F000D111D112469
S11316B0F80166A56E0D85A525E041E08F0D0E9419
S11316C03601F80160A96E0D87A525E041E08F0D74
S11316D00E943601F80162A96E0D81A925E041E05E
S11316E08F0D0E943601F80164A96E0D83A925E0CF
S11316F041E08F0D0E94360108EC12E0F12C23C06A
S1131700F801418141112CC0F8014281411131C0DD
S1131710F8014381411136C0F801448141113BC0B5
S1131720F8014581411141C0F8014681411147C08A
S1131730F801478141114DC0F394085F1F4FF8E051
S1131740FF1609F451C0F80140814423C9F225E091
S113175060E08F2D0E943601F80141814423A1F2FB
S113176025E061E08F2D0E943601F8014281442377
S113177079F225E062E08F2D0E943601F801438161
S1131780442351F225E063E08F2D0E943601F801D5
S11317904481442329F225E064E08F2D0E94360120
S11317A0F8014581442309F4BFCF25E065E08F2D7E
S11317B00E943601F8014681442309F4B9CF25E09B
S11317C066E08F2D0E943601F8014781442309F415
S11317D0B3CF25E067E08F2D0E943601F394085FB4
S11317E01F4FF8E0FF12AFCFE09160018DE2E89F58
S11317F0F0011124E457FE4F84A582B929CF9091BA
S11318006201E0905F01F0900401E09161018DE2DA
S11318108E9FF0011124E457FE4FDE0111960190D2
S11318200D928A95E1F701E010E00C0F1D1FE8E02E
S11318309E9F000D111D1124F80161816E0D8081A0
S113184025E041E08F0D0E943601F80163816E0DA1
S1131850828125E041E08F0D0E943601F801658107
S11318606E0D848125E041E08F0D0E943601F80160
S113187067816E0D868125E041E08F0D0E9436015F
S113188080915B01D0CECF93DF9300D000D0CDB751
S1131890DEB78CEF81B983E082B988E084B987EF41
S11318A085B98FEF87B918B88AB91BB8F1D261E04E
S11318B080E02DD260E080E03AD260E080E047D260
S11318C06FE080E02CD267E080E039D28FE00E94A4
S11318D0620180917A00806E80937A001092C70230
S11318E010928B011092890110928A0181E090E09C
S11318F0A0E0B0E08093050190930601A093070156
S1131900B09308018BE0809381008DE790E0909381
S113191089008093880082E080936F001092850094
S1131920109284008091050190910601A091070115
S1131930B091080180936C0190936D01A0936E01A6
S1131940B0936F018FB780688FBF0E947F00809132
S11319507800909179001DD319D31BD384E6C82E47
S1131960D12CE12CF12C94E1492E512C612C712CB9
S113197024E6822E912CA12CB12C84E190E0A0E0ED
S1131980B0E089839A83AB83BC833DE0232E31E0AE
S1131990332E14E102E04497A105B105E9F194E680
S11319A089169104A104B10409F442C0A4E14A16C1
S11319B051046104710409F447C0B2E3CB16D104A5
S11319C0E104F10408F04BC0809170018823E1F335
S11319D01092700189819A81AB81BC810196A11D0D
S11319E0B11D89839A83AB83BC839FEF891A990ABB
S11319F0A90AB90AAFEF4A1A5A0A6A0A7A0ABFEF61
S1131A00CB1ADB0AEB0AFB0A89819A81AB81BC8180
S1131A104497A105B10519F620D919821A821B82AF
S1131A201C8294E689169104A104B10409F0BECF86
S1131A300E941704812C912C5401A4E14A165104EC
S1131A406104710409F0B9CF2DDD412C512C320110
S1131A50B2E3CB16D104E104F10408F4B5CF8091CC
S1131A608A01813051F178F08230E9F0833059F401
S1131A70189B09C067E271E081E00E94D400C12C88
S1131A80D12C7601A1CF81E080938A010E946E005F
S1131A9066E171E081E00E94D40010935A01C12CE8
S1131AA0D12C760191CF189BEECF809163018823CE
S1131AB041F023E020938A01DDCF189BE7CF009308
S1131AC08A0180915A01843138F48F5F80935A01DE
S1131AD0C12CD12C760178CF68E371E081E00E94BB
S1131AE0D40080916B018F9380916A018F938091D0
S1131AF069018F93809168018F9389E091E09F93AE
S1131B008F933F922F9250D26DE071E089E00E9452
S1131B10D400809167018F93809166018F938091A7
S1131B2065018F93809164018F9389E091E09F9385
S1131B308F933F922F9238D26DE071E089E10E9439
S1131B40D40010925A010FB6F894DEBF0FBECDBF79
S1131B50C12CD12C760138CF5C98811130C05B98B0
S1131B605A985B9A5B985A985B9A5B985A985B9AD6
S1131B705B985A985B9A5B985A985B9A5B985A98C8
S1131B805B9A5B985A985B9A5B985A985B9A5B98B5
S1131B905A985B9A5B985A985B9A5B985A985B9AA6
S1131BA05B985A985B9A5B985A985B9A5B985A9898
S1131BB05B9A5B985A985B9A5B985A985B9A5B9885
S1131BC067FDA3C05A985B9A5B9866FD9CC05A98BF
S1131BD05B9A5B9865FD95C05A985B9A5B9864FD27
S1131BE08EC05A985B9A5B9863FD87C05A985B9A3B
S1131BF05B9862FD80C05A985B9A5B9861FD79C0DE
S1131C005A985B9A5B9860FF72C05A9A5B9A5B9889
S1131C1047FD6BC05A985B9A5B9846FD64C05A981E
S1131C205B9A5B9845FD5DC05A985B9A5B9844FD4E
S1131C3056C05A985B9A5B9843FD4FC05A985B9A7A
S1131C405B9842FD48C05A985B9A5B9841FD41C03D
S1131C505A985B9A5B9840FF3AC05A9A5B9A8823D9
S1131C60A1F190E05B985A985B9A5B985A985B9ABA
S1131C705B985A985B9A5B985A985B9A5B985A98C7
S1131C805B9A5B985A985B9A5B985A985B9A5B98B4
S1131C905A985B9A5B985A985B9A5B985A985B9AA5
S1131CA05B985A985B9A5B985A985B9A5B985A9897
S1131CB05B9A5B985A985B9A5B985A985B9A5B9884
S1131CC05A985B9A9F5F9813CDCF5C9A08955A985F
S1131CD0C5CF5A9ABECF5A9AB7CF5A9AB0CF5A9A0A
S1131CE0A9CF5A9AA2CF5A9A9BCF5A9A94CF5A986C
S1131CF08DCF5A9A86CF5A9A7FCF5A9A78CF5A9ACA
S1131D0071CF5A9A6ACF5A9A63CF5A9A5CCF62308B
S1131D1008F008958230E8F7462F6CE01DCF60315B
S1131D2010F4823008F00895462F6AE015CF62302F
S1131D3008F008958230E8F7462F6FE00DCF683041
S1131D4010F4823008F00895462F6BE005CF8230FE
S1131D5008F00895462F69E0FFCE0F931F93062FD6
S1131D6010E00830110590F4F801EA5BFF4FBEC0A3
S1131D70E82FF0E0EE0FFF1FEE0FFF1FEE0FFF1F27
S1131D80EF58FE4F4083823008F47EC01F910F91BC
S1131D900895E82FF0E0EE0FFF1FEE0FFF1FEE0F88
S1131DA0FF1FEF58FE4F4683823080F767E01F9194
S1131DB00F91D2CEE82FF0E0EE0FFF1FEE0FFF1FC2
S1131DC0EE0FFF1FEF58FE4F47838230F8F668E0AE
S1131DD01F910F91C1CEE82FF0E0EE0FFF1FEE0F21
S1131DE0FF1FEE0FFF1FEF58FE4F4183823070F646
S1131DF062E01F910F91B0CEE82FF0E0EE0FFF1FCD
S1131E00EE0FFF1FEE0FFF1FEF58FE4F428382308D
S1131E1008F0BCCF63E01F910F919ECEE82FF0E055
S1131E20EE0FFF1FEE0FFF1FEE0FFF1FEF58FE4FC9
S1131E304383823008F0AACF64E01F910F918CCEC7
S1131E40E82FF0E0EE0FFF1FEE0FFF1FEE0FFF1F56
S1131E50EF58FE4F4483823008F098CF65E01F911D
S1131E600F917ACEE82FF0E0EE0FFF1FEE0FFF1F69
S1131E70EE0FFF1FEF58FE4F4583823008F086CFE8
S1131E8066E01F910F9168CE61E01F910F9164CEBF
S1131E90529A539A549A5A985B985C980895AA1B3C
S1131EA0BB1B51E107C0AA1FBB1FA617B70710F041
S1131EB0A61BB70B881F991F5A95A9F78095909573
S1131EC0BC01CD01089597FB072E16F4009406D0AB
S1131ED077FD08D0E4DF07FC05D03EF490958195AA
S1131EE09F4F0895709561957F4F0895EE0FFF1FE2
S1131EF00024001C0BBE0790F691E02D09948F92EC
S1131F009F92AF92BF92CF92DF92EF92FF92CF93C4
S1131F10DF93EC01688179818A819B816115710568
S1131F208105910521F464E279ED8BE597E02DE1DB
S1131F3033EF41E050E013D349015A019B01AC0156
S1131F40A7EAB1E428D36B017C01ACEEB4EFA501A0
S1131F5094012DD3DC01CB018C0D9D1DAE1DBF1D45
S1131F60B7FF03C00197A109B04888839983AA8366
S1131F70BB839F77DF91CF91FF90EF90DF90CF905D
S1131F80BF90AF909F908F900895B9CF80E091E07B
S1131F90B6CFA0E0B0E08093000190930101A0933C
S1131FA00201B093030108950F931F93CF93DF931E
S1131FB0CDB7DEB72E970FB6F894DEBF0FBECDBFF8
S1131FC00D891E8986E08C831A8309838FEF9FE72E
S1131FD09E838D83AE01475E5F4F6F89788DCE01FE
S1131FE0019610D0EF81F885E00FF11F10822E9634
S1131FF00FB6F894DEBF0FBECDBFDF91CF911F9116
S11320000F9108952F923F924F925F926F927F9219
S11320108F929F92AF92BF92CF92DF92EF92FF92F4
S11320200F931F93CF93DF93CDB7DEB72B970FB6E4
S1132030F894DEBF0FBECDBF6C017B018A01FC01A9
S113204017821682838181FFBFC1CE0101963C01B4
S1132050F6019381F70193FD859193FF81917F01AF
S1132060882309F4ADC1853239F493FD859193FF3A
S113207081917F01853221F4B60190E0D6D1E8CF79
S1132080912C212C312CFFE1F315D8F08B3279F00F
S113209038F4803279F08332A1F4232D20611DC0FD
S11320A08D3261F0803369F4232D216016C0832DB5
S11320B08260382EE32DE4603E2E2AC0F32DF860B2
S11320C01DC037FC2DC020ED280F2A3040F08E3281
S11320D0B9F436FC75C1232D2064322E19C036FEA6
S11320E006C08AE0989E200D1124922E11C0EAE0C9
S11320F02E9E200D1124222EF32DF0623F2E08C0B7
S11321008C3621F4832D8068382E02C0883641F441
S1132110F70193FD859193FF81917F018111B3CFE5
S1132120982F9F7D9554933028F40C5F1F4F9FE3A5
S113213099830DC0833631F0833771F0833509F00C
S113214055C020C0F801808189830E5F1F4F882409
S11321508394912C530112C02801F2E04F0E511CBC
S1132160F801A080B18036FE03C0692D70E002C082
S11321706FEF7FEFC5014ED14C018201F32DFF7744
S11321803F2E15C0280122E0420E511CF801A08008
S1132190B18036FE03C0692D70E002C06FEF7FEF9F
S11321A0C5012DD14C01F32DF0683F2E820133FC83
S11321B019C0822D90E088169906A0F4B60180E239
S11321C090E033D12A94F5CFF50137FC859137FEA1
S11321D081915F01B60190E028D121102A9421E079
S11321E0821A91088114910479F7E1C0843611F0C0
S11321F0893639F5F80137FE07C060817181828123
S113220093810C5F1F4F08C060817181072E000C01
S1132210880B990B0E5F1F4FF32DFF763F2E97FF10
S113222009C090958095709561957F4F8F4F9F4F12
S1132230F0683F2E2AE030E0A30133D1882E8618BF
S113224044C0853731F4232D2F7EB22E2AE030E0AE
S113225025C0932D997FB92E8F36C1F018F4883597
S113226079F0AEC0803719F0883721F0A9C0E92F82
S1132270E061BE2EB4FE0DC0FB2DF460BF2E09C07C
S113228034FE0AC0292F2660B22E06C028E030E0B2
S113229005C020E130E002C020E132E0F801B7FEE1
S11322A007C060817181828193810C5F1F4F06C0DA
S11322B06081718180E090E00E5F1F4FA301F1D037
S11322C0882E8618FB2DFF773F2E36FE0DC0232D5A
S11322D02E7FA22E891458F434FE0BC032FC09C0A0
S11322E0832D8E7EA82E05C0B82CA32C03C0B82C39
S11322F001C0B92CA4FE0FC0FE01E80DF11D8081C0
S1132300803321F49A2D997EA92E09C0A2FE06C01D
S1132310B394B39404C08A2D867809F0B394A3FCD3
S113232010C0A0FE06C0B21480F4280C922C9B1896
S11323300DC0B21458F4B60180E290E076D0B394A4
S1132340F8CFB21418F42B1802C0982C212CA4FE38
S11323500FC0B60180E390E068D0A2FE16C0A1FCD5
S113236003C088E790E002C088E590E0B6010CC0A5
S11323708A2D867851F0A1FE02C08BE201C080E272
S1132380A7FC8DE2B60190E050D0891430F4B60178
S113239080E390E04AD09A94F8CF8A94F301E80D50
S11323A0F11D8081B60190E040D08110F6CF22204B
S11323B009F44ECEB60180E290E037D02A94F7CFEC
S11323C0F6018681978102C08FEF9FEF2B960FB69F
S11323D0F894DEBF0FBECDBFDF91CF911F910F9157
S11323E0FF90EF90DF90CF90BF90AF909F908F9031
S11323F07F906F905F904F903F902F900895FC01D5
S11324000590615070400110D8F7809590958E0F1B
S11324109F1F0895FC016150704001900110D8F78E
S1132420809590958E0F9F1F08950F931F93CF93C0
S1132430DF93FB01238121FD03C08FEF9FEF2CC0AD
S113244022FF16C0468157812481358142175307E4
S113245044F4A081B1819D012F5F3F4F31832083DC
S11324608C93268137812F5F3F4F3783268314C097
S11324708B01EC01FB010084F185E02D0995892B8A
S1132480E1F6D80116968D919C91179701961796AF
S11324909C938E931697CE01DF91CF911F910F914C
S11324A00895FA01AA27283051F1203181F1E894E6
S11324B06F936E7F6E5F7F4F8F4F9F4FAF4FB1E033
S11324C03ED0B4E03CD0670F781F891F9A1FA11D2E
S11324D0680F791F8A1F911DA11D6A0F711D811D2F
S11324E0911DA11D20D009F468943F912AE0269FF4
S11324F011243019305D3193DEF6CF010895462F53
S11325004770405D4193B3E00FD0C9F7F6CF462F33
S11325104F70405D4A3318F0495D31FD405241939C
S113252002D0A9F7EACFB4E0A69597958795779559
S11325306795BA95C9F700976105710508959B01E0
S1132540AC010A2E06945795479537952795BA9569
S1132550C9F7620F731F841F951FA01D0895052ED0
S113256097FB16F400940FD057FD05D024D007FC38
S113257002D046F408C050954095309521953F4FC0
S11325804F4F5F4F089590958095709561957F4F5B
S11325908F4F9F4F089531D0A59F900DB49F900DFC
S11325A0A49F800D911D11240895B7FFF4CFF3DF8C
S11325B0821B930B0895A1E21A2EAA1BBB1BFD01DB
S11325C00DC0AA1FBB1FEE1FFF1FA217B307E4070E
S11325D0F50720F0A21BB30BE40BF50B661F771F66
S11325E0881F991F1A9469F7609570958095909546
S11325F09B01AC01BD01CF010895A29FB001B39F1F
S1132600C001A39F700D811D1124911DB29F700DF7
S10F2610811D1124911D0895F894FFCF42
S113261C0100000003010000002538640020202084
S113262C2020202020002020494E495449414C4967
S113263C5A494E4720200020202047616D652020F8
S113264C4F766572202020004C696E65733A202009
S113265C202020202020202053636F72653A2020F4
S10D266C2020202020202020000060
S9030000FC
